{
  "_format": "hh-sol-artifact-1",
  "contractName": "DOGToken",
  "sourceName": "contracts/test.sol",
  "abi": [
    {
      "inputs": [],
      "stateMutability": "nonpayable",
      "type": "constructor"
    },
    {
      "anonymous": false,
      "inputs": [
        {
          "indexed": true,
          "internalType": "address",
          "name": "owner",
          "type": "address"
        },
        {
          "indexed": true,
          "internalType": "address",
          "name": "approved",
          "type": "address"
        },
        {
          "indexed": true,
          "internalType": "uint256",
          "name": "tokenId",
          "type": "uint256"
        }
      ],
      "name": "Approval",
      "type": "event"
    },
    {
      "anonymous": false,
      "inputs": [
        {
          "indexed": true,
          "internalType": "address",
          "name": "owner",
          "type": "address"
        },
        {
          "indexed": true,
          "internalType": "address",
          "name": "operator",
          "type": "address"
        },
        {
          "indexed": false,
          "internalType": "bool",
          "name": "approved",
          "type": "bool"
        }
      ],
      "name": "ApprovalForAll",
      "type": "event"
    },
    {
      "anonymous": false,
      "inputs": [
        {
          "indexed": true,
          "internalType": "address",
          "name": "previousOwner",
          "type": "address"
        },
        {
          "indexed": true,
          "internalType": "address",
          "name": "newOwner",
          "type": "address"
        }
      ],
      "name": "OwnershipTransferred",
      "type": "event"
    },
    {
      "anonymous": false,
      "inputs": [
        {
          "indexed": true,
          "internalType": "address",
          "name": "from",
          "type": "address"
        },
        {
          "indexed": true,
          "internalType": "address",
          "name": "to",
          "type": "address"
        },
        {
          "indexed": true,
          "internalType": "uint256",
          "name": "tokenId",
          "type": "uint256"
        }
      ],
      "name": "Transfer",
      "type": "event"
    },
    {
      "inputs": [
        {
          "internalType": "address",
          "name": "to",
          "type": "address"
        },
        {
          "internalType": "uint256",
          "name": "tokenId",
          "type": "uint256"
        }
      ],
      "name": "approve",
      "outputs": [],
      "stateMutability": "nonpayable",
      "type": "function"
    },
    {
      "inputs": [
        {
          "internalType": "address",
          "name": "to",
          "type": "address"
        },
        {
          "internalType": "uint256",
          "name": "tokenId1",
          "type": "uint256"
        },
        {
          "internalType": "uint256",
          "name": "tokenId2",
          "type": "uint256"
        }
      ],
      "name": "approveNFTS",
      "outputs": [],
      "stateMutability": "nonpayable",
      "type": "function"
    },
    {
      "inputs": [
        {
          "internalType": "address",
          "name": "owner",
          "type": "address"
        }
      ],
      "name": "balanceOf",
      "outputs": [
        {
          "internalType": "uint256",
          "name": "",
          "type": "uint256"
        }
      ],
      "stateMutability": "view",
      "type": "function"
    },
    {
      "inputs": [
        {
          "internalType": "address",
          "name": "_receiver",
          "type": "address"
        },
        {
          "internalType": "uint256",
          "name": "_type",
          "type": "uint256"
        }
      ],
      "name": "breed",
      "outputs": [],
      "stateMutability": "payable",
      "type": "function"
    },
    {
      "inputs": [
        {
          "internalType": "uint256",
          "name": "tokenId",
          "type": "uint256"
        }
      ],
      "name": "getApproved",
      "outputs": [
        {
          "internalType": "address",
          "name": "",
          "type": "address"
        }
      ],
      "stateMutability": "view",
      "type": "function"
    },
    {
      "inputs": [],
      "name": "getBalance",
      "outputs": [
        {
          "internalType": "uint256",
          "name": "",
          "type": "uint256"
        }
      ],
      "stateMutability": "view",
      "type": "function"
    },
    {
      "inputs": [],
      "name": "getDogs",
      "outputs": [
        {
          "components": [
            {
              "internalType": "uint256",
              "name": "id",
              "type": "uint256"
            },
            {
              "internalType": "uint256",
              "name": "level",
              "type": "uint256"
            },
            {
              "internalType": "uint256",
              "name": "speed",
              "type": "uint256"
            },
            {
              "internalType": "uint256",
              "name": "beauty",
              "type": "uint256"
            },
            {
              "internalType": "uint256",
              "name": "strength",
              "type": "uint256"
            }
          ],
          "internalType": "struct DOGToken.DogInfo[]",
          "name": "",
          "type": "tuple[]"
        }
      ],
      "stateMutability": "view",
      "type": "function"
    },
    {
      "inputs": [],
      "name": "getMaxSupply",
      "outputs": [
        {
          "internalType": "uint256",
          "name": "",
          "type": "uint256"
        }
      ],
      "stateMutability": "view",
      "type": "function"
    },
    {
      "inputs": [],
      "name": "getMintPrice",
      "outputs": [
        {
          "internalType": "uint256",
          "name": "",
          "type": "uint256"
        }
      ],
      "stateMutability": "view",
      "type": "function"
    },
    {
      "inputs": [
        {
          "internalType": "uint256",
          "name": "id",
          "type": "uint256"
        }
      ],
      "name": "getlevel",
      "outputs": [
        {
          "internalType": "uint256",
          "name": "",
          "type": "uint256"
        }
      ],
      "stateMutability": "view",
      "type": "function"
    },
    {
      "inputs": [
        {
          "internalType": "address",
          "name": "owner",
          "type": "address"
        },
        {
          "internalType": "address",
          "name": "operator",
          "type": "address"
        }
      ],
      "name": "isApprovedForAll",
      "outputs": [
        {
          "internalType": "bool",
          "name": "",
          "type": "bool"
        }
      ],
      "stateMutability": "view",
      "type": "function"
    },
    {
      "inputs": [
        {
          "internalType": "uint256",
          "name": "mintamount",
          "type": "uint256"
        }
      ],
      "name": "mint",
      "outputs": [],
      "stateMutability": "payable",
      "type": "function"
    },
    {
      "inputs": [],
      "name": "name",
      "outputs": [
        {
          "internalType": "string",
          "name": "",
          "type": "string"
        }
      ],
      "stateMutability": "view",
      "type": "function"
    },
    {
      "inputs": [],
      "name": "owner",
      "outputs": [
        {
          "internalType": "address",
          "name": "",
          "type": "address"
        }
      ],
      "stateMutability": "view",
      "type": "function"
    },
    {
      "inputs": [
        {
          "internalType": "uint256",
          "name": "tokenId",
          "type": "uint256"
        }
      ],
      "name": "ownerOf",
      "outputs": [
        {
          "internalType": "address",
          "name": "",
          "type": "address"
        }
      ],
      "stateMutability": "view",
      "type": "function"
    },
    {
      "inputs": [],
      "name": "renounceOwnership",
      "outputs": [],
      "stateMutability": "nonpayable",
      "type": "function"
    },
    {
      "inputs": [
        {
          "internalType": "address",
          "name": "from",
          "type": "address"
        },
        {
          "internalType": "address",
          "name": "to",
          "type": "address"
        },
        {
          "internalType": "uint256",
          "name": "tokenId",
          "type": "uint256"
        }
      ],
      "name": "safeTransferFrom",
      "outputs": [],
      "stateMutability": "nonpayable",
      "type": "function"
    },
    {
      "inputs": [
        {
          "internalType": "address",
          "name": "from",
          "type": "address"
        },
        {
          "internalType": "address",
          "name": "to",
          "type": "address"
        },
        {
          "internalType": "uint256",
          "name": "tokenId",
          "type": "uint256"
        },
        {
          "internalType": "bytes",
          "name": "_data",
          "type": "bytes"
        }
      ],
      "name": "safeTransferFrom",
      "outputs": [],
      "stateMutability": "nonpayable",
      "type": "function"
    },
    {
      "inputs": [
        {
          "internalType": "address",
          "name": "operator",
          "type": "address"
        },
        {
          "internalType": "bool",
          "name": "approved",
          "type": "bool"
        }
      ],
      "name": "setApprovalForAll",
      "outputs": [],
      "stateMutability": "nonpayable",
      "type": "function"
    },
    {
      "inputs": [
        {
          "internalType": "uint256",
          "name": "_newmax",
          "type": "uint256"
        }
      ],
      "name": "setMaxSupply",
      "outputs": [],
      "stateMutability": "nonpayable",
      "type": "function"
    },
    {
      "inputs": [
        {
          "internalType": "address",
          "name": "_contract",
          "type": "address"
        }
      ],
      "name": "setstakingcontract",
      "outputs": [],
      "stateMutability": "nonpayable",
      "type": "function"
    },
    {
      "inputs": [
        {
          "internalType": "bytes4",
          "name": "interfaceId",
          "type": "bytes4"
        }
      ],
      "name": "supportsInterface",
      "outputs": [
        {
          "internalType": "bool",
          "name": "",
          "type": "bool"
        }
      ],
      "stateMutability": "view",
      "type": "function"
    },
    {
      "inputs": [],
      "name": "symbol",
      "outputs": [
        {
          "internalType": "string",
          "name": "",
          "type": "string"
        }
      ],
      "stateMutability": "view",
      "type": "function"
    },
    {
      "inputs": [
        {
          "internalType": "uint256",
          "name": "index",
          "type": "uint256"
        }
      ],
      "name": "tokenByIndex",
      "outputs": [
        {
          "internalType": "uint256",
          "name": "",
          "type": "uint256"
        }
      ],
      "stateMutability": "view",
      "type": "function"
    },
    {
      "inputs": [
        {
          "internalType": "address",
          "name": "owner",
          "type": "address"
        },
        {
          "internalType": "uint256",
          "name": "index",
          "type": "uint256"
        }
      ],
      "name": "tokenOfOwnerByIndex",
      "outputs": [
        {
          "internalType": "uint256",
          "name": "",
          "type": "uint256"
        }
      ],
      "stateMutability": "view",
      "type": "function"
    },
    {
      "inputs": [
        {
          "internalType": "uint256",
          "name": "tokenId",
          "type": "uint256"
        }
      ],
      "name": "tokenURI",
      "outputs": [
        {
          "internalType": "string",
          "name": "",
          "type": "string"
        }
      ],
      "stateMutability": "view",
      "type": "function"
    },
    {
      "inputs": [
        {
          "internalType": "address",
          "name": "_owner",
          "type": "address"
        }
      ],
      "name": "tokensOfOwner",
      "outputs": [
        {
          "internalType": "uint256[]",
          "name": "",
          "type": "uint256[]"
        }
      ],
      "stateMutability": "view",
      "type": "function"
    },
    {
      "inputs": [],
      "name": "totalSupply",
      "outputs": [
        {
          "internalType": "uint256",
          "name": "",
          "type": "uint256"
        }
      ],
      "stateMutability": "view",
      "type": "function"
    },
    {
      "inputs": [
        {
          "internalType": "address",
          "name": "from",
          "type": "address"
        },
        {
          "internalType": "address",
          "name": "to",
          "type": "address"
        },
        {
          "internalType": "uint256",
          "name": "tokenId",
          "type": "uint256"
        }
      ],
      "name": "transferFrom",
      "outputs": [],
      "stateMutability": "nonpayable",
      "type": "function"
    },
    {
      "inputs": [
        {
          "internalType": "address",
          "name": "newOwner",
          "type": "address"
        }
      ],
      "name": "transferOwnership",
      "outputs": [],
      "stateMutability": "nonpayable",
      "type": "function"
    },
    {
      "inputs": [
        {
          "internalType": "uint256",
          "name": "mintPrice",
          "type": "uint256"
        }
      ],
      "name": "updateMintPrice",
      "outputs": [],
      "stateMutability": "nonpayable",
      "type": "function"
    }
  ],
  "bytecode": "0x612710600b819055600c55600d80546001600160a01b03191673972954f0ee7c8215ec5b76d55cb15215338f9d56179055600a6011556103c060405261012c608081815261016860a090815260c083905261019060e08190526101f4610100819052610104610120526101408190526101608190526101808590526101a08190526101c081905260786101e0526102008590526102208190526102408190526102608290526102808290526102a08190526102c08290526102e05261030081905261032081905261034084905261036093909352610380929092526103a091909152620000f190601490601a620003ec565b5060408051610340810182526000815261012c6020820152610294918101919091526103c06060820152610550608082015261074460a082015261084860c0820152610a3c60e0820152610c30610100820152610d5c610120820152610f506101408201526111446101608201526111bc6101808201526112e86101a08201526114dc6101c08201526116d06101e08201526118606102008201526119f0610220820152611be4610240820152611d74610260820152611f686102808201526120f86102a08201526122886102c08201526123b46102e08201526124e0610300820152612670610320820152620001ed90601590601a620003ec565b506040805161034081018252603c80825260506020830181905260289383018490526060830182905260a06080840181905280840183905260b460c0850152606460e085018190526101008501839052610120850182905261014085018490526014610160860152610180850181905260786101a086018190526101c08601919091526101e0850184905261020085018490526102208501919091526102408401829052610260840181905261028084018390526102a08401929092526102c08301526102e08201929092526103008101919091526018610320820152620002da90601690601a62000442565b5060405180608001604052806044815260200162002f1a6044913980516200030b9160179160209091019062000485565b503480156200031957600080fd5b50604080518082018252600b81526a13595d18511bd9c813919560aa1b6020808301918252835180850190945260048452634d444f4760e01b908401528151919291620003699160009162000485565b5080516200037f90600190602084019062000485565b505050600062000394620003e860201b60201c565b600a80546001600160a01b0319166001600160a01b038316908117909155604051919250906000907f8be0079c531659141344cd1fd0a4f28419497f9722a3daafe3b4186f6b6457e0908290a35062000556565b3390565b82805482825590600052602060002090810192821562000430579160200282015b8281111562000430578251829061ffff169055916020019190600101906200040d565b506200043e92915062000502565b5090565b82805482825590600052602060002090810192821562000430579160200282015b8281111562000430578251829060ff1690559160200191906001019062000463565b828054620004939062000519565b90600052602060002090601f016020900481019282620004b7576000855562000430565b82601f10620004d257805160ff191683800117855562000430565b8280016001018555821562000430579182015b8281111562000430578251825591602001919060010190620004e5565b5b808211156200043e576000815560010162000503565b600181811c908216806200052e57607f821691505b602082108114156200055057634e487b7160e01b600052602260045260246000fd5b50919050565b6129b480620005666000396000f3fe6080604052600436106101d75760003560e01c80636f8b44b011610102578063a22cb46511610095578063cb80ed2711610064578063cb80ed2714610550578063d015a94014610572578063e985e9c514610585578063f2fde38b146105ce57600080fd5b8063a22cb465146104db578063a7f93ebd146104fb578063b88d4fde14610510578063c87b56dd1461053057600080fd5b80638462151c116100d15780638462151c146104685780638da5cb5b1461049557806395d89b41146104b3578063a0712d68146104c857600080fd5b80636f8b44b0146103f357806370a0823114610413578063715018a614610433578063803068551461044857600080fd5b806318160ddd1161017a57806342842e0e1161014957806342842e0e1461037e5780634c0f38c21461039e5780634f6ccce7146103b35780636352211e146103d357600080fd5b806318160ddd1461030957806323b872dd1461031e5780632f745c591461033e5780633bc27b5f1461035e57600080fd5b8063081812fc116101b6578063081812fc14610255578063095ea7b31461028d57806312065fe0146102ad5780631564ed9a146102d957600080fd5b8062728e46146101dc57806301ffc9a7146101fe57806306fdde0314610233575b600080fd5b3480156101e857600080fd5b506101fc6101f7366004612323565b6105ee565b005b34801561020a57600080fd5b5061021e610219366004612355565b610626565b60405190151581526020015b60405180910390f35b34801561023f57600080fd5b50610248610651565b60405161022a91906123ca565b34801561026157600080fd5b50610275610270366004612323565b6106e3565b6040516001600160a01b03909116815260200161022a565b34801561029957600080fd5b506101fc6102a83660046123f9565b610778565b3480156102b957600080fd5b50336000908152601260205260409020545b60405190815260200161022a565b3480156102e557600080fd5b506102cb6102f4366004612323565b6000908152600f602052604090206001015490565b34801561031557600080fd5b506008546102cb565b34801561032a57600080fd5b506101fc610339366004612423565b61088e565b34801561034a57600080fd5b506102cb6103593660046123f9565b6108bf565b34801561036a57600080fd5b506101fc61037936600461245f565b610955565b34801561038a57600080fd5b506101fc610399366004612423565b6109a1565b3480156103aa57600080fd5b50600b546102cb565b3480156103bf57600080fd5b506102cb6103ce366004612323565b6109bc565b3480156103df57600080fd5b506102756103ee366004612323565b610a4f565b3480156103ff57600080fd5b506101fc61040e366004612323565b610ac6565b34801561041f57600080fd5b506102cb61042e36600461245f565b610af5565b34801561043f57600080fd5b506101fc610b7c565b34801561045457600080fd5b506101fc61046336600461247a565b610bf0565b34801561047457600080fd5b5061048861048336600461245f565b610c04565b60405161022a91906124ad565b3480156104a157600080fd5b50600a546001600160a01b0316610275565b3480156104bf57600080fd5b50610248610cc3565b6101fc6104d6366004612323565b610cd2565b3480156104e757600080fd5b506101fc6104f63660046124ff565b61107f565b34801561050757600080fd5b50600c546102cb565b34801561051c57600080fd5b506101fc61052b36600461254c565b611144565b34801561053c57600080fd5b5061024861054b366004612323565b61117c565b34801561055c57600080fd5b50610565611257565b60405161022a9190612628565b6101fc6105803660046123f9565b6112e8565b34801561059157600080fd5b5061021e6105a0366004612696565b6001600160a01b03918216600090815260056020908152604080832093909416825291909152205460ff1690565b3480156105da57600080fd5b506101fc6105e936600461245f565b6113cf565b600a546001600160a01b031633146106215760405162461bcd60e51b8152600401610618906126c9565b60405180910390fd5b600c55565b60006001600160e01b0319821663780e9d6360e01b148061064b575061064b826114ba565b92915050565b606060008054610660906126fe565b80601f016020809104026020016040519081016040528092919081815260200182805461068c906126fe565b80156106d95780601f106106ae576101008083540402835291602001916106d9565b820191906000526020600020905b8154815290600101906020018083116106bc57829003601f168201915b5050505050905090565b6000818152600260205260408120546001600160a01b031661075c5760405162461bcd60e51b815260206004820152602c60248201527f4552433732313a20617070726f76656420717565727920666f72206e6f6e657860448201526b34b9ba32b73a103a37b5b2b760a11b6064820152608401610618565b506000908152600460205260409020546001600160a01b031690565b600061078382610a4f565b9050806001600160a01b0316836001600160a01b031614156107f15760405162461bcd60e51b815260206004820152602160248201527f4552433732313a20617070726f76616c20746f2063757272656e74206f776e656044820152603960f91b6064820152608401610618565b336001600160a01b038216148061080d575061080d81336105a0565b61087f5760405162461bcd60e51b815260206004820152603860248201527f4552433732313a20617070726f76652063616c6c6572206973206e6f74206f7760448201527f6e6572206e6f7220617070726f76656420666f7220616c6c00000000000000006064820152608401610618565b610889838361150a565b505050565b6108983382611578565b6108b45760405162461bcd60e51b815260040161061890612733565b61088983838361166f565b60006108ca83610af5565b821061092c5760405162461bcd60e51b815260206004820152602b60248201527f455243373231456e756d657261626c653a206f776e657220696e646578206f7560448201526a74206f6620626f756e647360a81b6064820152608401610618565b506001600160a01b03919091166000908152600660209081526040808320938352929052205490565b600a546001600160a01b0316331461097f5760405162461bcd60e51b8152600401610618906126c9565b600e80546001600160a01b0319166001600160a01b0392909216919091179055565b61088983838360405180602001604052806000815250611144565b60006109c760085490565b8210610a2a5760405162461bcd60e51b815260206004820152602c60248201527f455243373231456e756d657261626c653a20676c6f62616c20696e646578206f60448201526b7574206f6620626f756e647360a01b6064820152608401610618565b60088281548110610a3d57610a3d612784565b90600052602060002001549050919050565b6000818152600260205260408120546001600160a01b03168061064b5760405162461bcd60e51b815260206004820152602960248201527f4552433732313a206f776e657220717565727920666f72206e6f6e657869737460448201526832b73a103a37b5b2b760b91b6064820152608401610618565b600a546001600160a01b03163314610af05760405162461bcd60e51b8152600401610618906126c9565b600b55565b60006001600160a01b038216610b605760405162461bcd60e51b815260206004820152602a60248201527f4552433732313a2062616c616e636520717565727920666f7220746865207a65604482015269726f206164647265737360b01b6064820152608401610618565b506001600160a01b031660009081526003602052604090205490565b600a546001600160a01b03163314610ba65760405162461bcd60e51b8152600401610618906126c9565b600a546040516000916001600160a01b0316907f8be0079c531659141344cd1fd0a4f28419497f9722a3daafe3b4186f6b6457e0908390a3600a80546001600160a01b0319169055565b610bfa8383610778565b6108898382610778565b60606000610c1183610af5565b905080610c325760408051600080825260208201909252905b509392505050565b60008167ffffffffffffffff811115610c4d57610c4d612536565b604051908082528060200260200182016040528015610c76578160200160208202803683370190505b50905060005b82811015610c2a57610c8e85826108bf565b828281518110610ca057610ca0612784565b602090810291909101015280610cb5816127b0565b915050610c7c565b50919050565b606060018054610660906126fe565b600081118015610ce457506011548111155b610d3a5760405162461bcd60e51b815260206004820152602160248201527f43616e206f6e6c79206d696e7420313020746f6b656e7320617420612074696d6044820152606560f81b6064820152608401610618565b80600c54610d4891906127cb565b600d546040516370a0823160e01b81523360048201526001600160a01b03909116906370a0823190602401602060405180830381865afa158015610d90573d6000803e3d6000fd5b505050506040513d601f19601f82011682018060405250810190610db491906127ea565b11610df25760405162461bcd60e51b815260206004820152600e60248201526d125b9d985b1a5908105b5bdd5b9d60921b6044820152606401610618565b600d54600c546001600160a01b03909116906323b872dd9033903090610e199086906127cb565b6040516001600160e01b031960e086901b1681526001600160a01b03938416600482015292909116602483015260448201526064016020604051808303816000875af1158015610e6d573d6000803e3d6000fd5b505050506040513d601f19601f82011682018060405250810190610e919190612803565b5060008167ffffffffffffffff811115610ead57610ead612536565b604051908082528060200260200182016040528015610ed6578160200160208202803683370190505b509050610ee28261167a565b905060015b82811015610f2457610f12828281518110610f0457610f04612784565b6020026020010151336117cb565b80610f1c816127b0565b915050610ee7565b503360009081526012602052604081208054849290610f44908490612820565b9091555050600d54600c546001600160a01b039091169063095ea7b3903090610f6e9086906127cb565b6040516001600160e01b031960e085901b1681526001600160a01b03909216600483015260248201526044016020604051808303816000875af1158015610fb9573d6000803e3d6000fd5b505050506040513d601f19601f82011682018060405250810190610fdd9190612803565b50600d54600c546001600160a01b03909116906323b872dd90309061dead906110079087906127cb565b6040516001600160e01b031960e086901b1681526001600160a01b03938416600482015292909116602483015260448201526064016020604051808303816000875af115801561105b573d6000803e3d6000fd5b505050506040513d601f19601f820116820180604052508101906108899190612803565b6001600160a01b0382163314156110d85760405162461bcd60e51b815260206004820152601960248201527f4552433732313a20617070726f766520746f2063616c6c6572000000000000006044820152606401610618565b3360008181526005602090815260408083206001600160a01b03871680855290835292819020805460ff191686151590811790915590519081529192917f17307eab39ab6107e8899845ad3d59bd9653f200f220920489ca2b5937696c31910160405180910390a35050565b61114e3383611578565b61116a5760405162461bcd60e51b815260040161061890612733565b61117684848484611aac565b50505050565b6000818152600260205260409020546060906001600160a01b03166111fb5760405162461bcd60e51b815260206004820152602f60248201527f4552433732314d657461646174613a2055524920717565727920666f72206e6f60448201526e3732bc34b9ba32b73a103a37b5b2b760891b6064820152608401610618565b6000611205611adf565b905060008151116112255760405180602001604052806000815250611250565b8061122f84611aee565b604051602001611240929190612838565b6040516020818303038152906040525b9392505050565b60606010805480602002602001604051908101604052809291908181526020016000905b828210156112df57838290600052602060002090600502016040518060a0016040529081600082015481526020016001820154815260200160028201548152602001600382015481526020016004820154815250508152602001906001019061127b565b50505050905090565b600e546001600160a01b031633146113425760405162461bcd60e51b815260206004820152601c60248201527f796f752063616e27742063616c6c20746869732066756e6374696f6e000000006044820152606401610618565b6014818154811061135557611355612784565b90600052602060002001546013600083815260200190815260200160002054106113c15760405162461bcd60e51b815260206004820152601760248201527f796f752063616e2774206d696e7420616e79206d6f72650000000000000000006044820152606401610618565b6113cb81836117cb565b5050565b600a546001600160a01b031633146113f95760405162461bcd60e51b8152600401610618906126c9565b6001600160a01b03811661145e5760405162461bcd60e51b815260206004820152602660248201527f4f776e61626c653a206e6577206f776e657220697320746865207a65726f206160448201526564647265737360d01b6064820152608401610618565b600a546040516001600160a01b038084169216907f8be0079c531659141344cd1fd0a4f28419497f9722a3daafe3b4186f6b6457e090600090a3600a80546001600160a01b0319166001600160a01b0392909216919091179055565b60006001600160e01b031982166380ac58cd60e01b14806114eb57506001600160e01b03198216635b5e139f60e01b145b8061064b57506301ffc9a760e01b6001600160e01b031983161461064b565b600081815260046020526040902080546001600160a01b0319166001600160a01b038416908117909155819061153f82610a4f565b6001600160a01b03167f8c5be1e5ebec7d5bd14f71427d1e84f3dd0314c0f7b2291e5b200ac8c7c3b92560405160405180910390a45050565b6000818152600260205260408120546001600160a01b03166115f15760405162461bcd60e51b815260206004820152602c60248201527f4552433732313a206f70657261746f7220717565727920666f72206e6f6e657860448201526b34b9ba32b73a103a37b5b2b760a11b6064820152608401610618565b60006115fc83610a4f565b9050806001600160a01b0316846001600160a01b031614806116375750836001600160a01b031661162c846106e3565b6001600160a01b0316145b8061166757506001600160a01b0380821660009081526005602090815260408083209388168352929052205460ff165b949350505050565b610889838383611bec565b606060008267ffffffffffffffff81111561169757611697612536565b6040519080825280602002602001820160405280156116c0578160200160208202803683370190505b50905060005b838110156117c4576000600a6116da611d97565b60408051602081019290925281018490526060016040516020818303038152906040528051906020012060001c611711919061287d565b90505b6016818154811061172757611727612784565b906000526020600020015460136000838152602001908152602001600020541061179357600a611755611d97565b60408051602081019290925281018390526060016040516020818303038152906040528051906020012060001c61178c919061287d565b9050611714565b808383815181106117a6576117a6612784565b602090810291909101015250806117bc816127b0565b9150506116c6565b5092915050565b601482815481106117de576117de612784565b906000526020600020015460136000848152602001908152602001600020541061184a5760405162461bcd60e51b815260206004820152601760248201527f596f752063616e2774206d696e7420616e79206d6f72650000000000000000006044820152606401610618565b600082815260136020526040812080548290611865906127b0565b91905081905590506015838154811061188057611880612784565b9060005260206000200154816118969190612820565b60408051600480825260a0820190925291925060009190602082016080803683370190505090506118c682611ddf565b90506118fa6040518060a0016040528060008152602001600081526020016000815260200160008152602001600081525090565b8281528160008151811061191057611910612784565b602090810291909101810151908201528160018151811061193357611933612784565b602090810291909101015160408201528160028151811061195657611956612784565b602090810291909101015160608201528160038151811061197957611979612784565b602090810291909101810151608083019081526000858152600f83526040808220855181559385018051600180870191909155918601805160028701556060870180516003880155855160049097019690965560108054938401815590935285517f1b6847dc741a1b0cd08d278845f9d819d87b734759afb55fe2de5cb82a9ae672600590930292830155517f1b6847dc741a1b0cd08d278845f9d819d87b734759afb55fe2de5cb82a9ae67382015590517f1b6847dc741a1b0cd08d278845f9d819d87b734759afb55fe2de5cb82a9ae67482015591517f1b6847dc741a1b0cd08d278845f9d819d87b734759afb55fe2de5cb82a9ae675830155517f1b6847dc741a1b0cd08d278845f9d819d87b734759afb55fe2de5cb82a9ae67690910155611aa58484611e8f565b5050505050565b611ab784848461166f565b611ac384848484611fdd565b6111765760405162461bcd60e51b815260040161061890612891565b606060178054610660906126fe565b606081611b125750506040805180820190915260018152600360fc1b602082015290565b8160005b8115611b3c5780611b26816127b0565b9150611b359050600a836128e3565b9150611b16565b60008167ffffffffffffffff811115611b5757611b57612536565b6040519080825280601f01601f191660200182016040528015611b81576020820181803683370190505b5090505b841561166757611b966001836128f7565b9150611ba3600a8661287d565b611bae906030612820565b60f81b818381518110611bc357611bc3612784565b60200101906001600160f81b031916908160001a905350611be5600a866128e3565b9450611b85565b826001600160a01b0316611bff82610a4f565b6001600160a01b031614611c675760405162461bcd60e51b815260206004820152602960248201527f4552433732313a207472616e73666572206f6620746f6b656e2074686174206960448201526839903737ba1037bbb760b91b6064820152608401610618565b6001600160a01b038216611cc95760405162461bcd60e51b8152602060048201526024808201527f4552433732313a207472616e7366657220746f20746865207a65726f206164646044820152637265737360e01b6064820152608401610618565b611cd48383836120db565b611cdf60008261150a565b6001600160a01b0383166000908152600360205260408120805460019290611d089084906128f7565b90915550506001600160a01b0382166000908152600360205260408120805460019290611d36908490612820565b909155505060008181526002602052604080822080546001600160a01b0319166001600160a01b0386811691821790925591518493918716917fddf252ad1be2c89b69c2b068fc378daa952ba7f163c4a11628f55a4df523b3ef91a4505050565b6000600a4442604051602001611db7929190918252602082015260400190565b6040516020818303038152906040528051906020012060001c611dda919061287d565b905090565b60408051600480825260a08201909252606091600091906020820160808036833701905050905060005b60048110156117c4576000600a611e1e611d97565b6040805160208101929092528101849052606081018790526080016040516020818303038152906040528051906020012060001c611e5c919061287d565b905080838381518110611e7157611e71612784565b60209081029190910101525080611e87816127b0565b915050611e09565b6001600160a01b038216611ee55760405162461bcd60e51b815260206004820181905260248201527f4552433732313a206d696e7420746f20746865207a65726f20616464726573736044820152606401610618565b6000818152600260205260409020546001600160a01b031615611f4a5760405162461bcd60e51b815260206004820152601c60248201527f4552433732313a20746f6b656e20616c7265616479206d696e746564000000006044820152606401610618565b611f56600083836120db565b6001600160a01b0382166000908152600360205260408120805460019290611f7f908490612820565b909155505060008181526002602052604080822080546001600160a01b0319166001600160a01b03861690811790915590518392907fddf252ad1be2c89b69c2b068fc378daa952ba7f163c4a11628f55a4df523b3ef908290a45050565b60006001600160a01b0384163b156120d057604051630a85bd0160e11b81526001600160a01b0385169063150b7a029061202190339089908890889060040161290e565b6020604051808303816000875af192505050801561205c575060408051601f3d908101601f191682019092526120599181019061294b565b60015b6120b6573d80801561208a576040519150601f19603f3d011682016040523d82523d6000602084013e61208f565b606091505b5080516120ae5760405162461bcd60e51b815260040161061890612891565b805181602001fd5b6001600160e01b031916630a85bd0160e11b149050611667565b506001949350505050565b6001600160a01b0383166121365761213181600880546000838152600960205260408120829055600182018355919091527ff3f7a9fe364faab93b216da50a3214154f22a0a2b415b23a84c8169e8b636ee30155565b612159565b816001600160a01b0316836001600160a01b031614612159576121598382612193565b6001600160a01b0382166121705761088981612230565b826001600160a01b0316826001600160a01b0316146108895761088982826122df565b600060016121a084610af5565b6121aa91906128f7565b6000838152600760205260409020549091508082146121fd576001600160a01b03841660009081526006602090815260408083208584528252808320548484528184208190558352600790915290208190555b5060009182526007602090815260408084208490556001600160a01b039094168352600681528383209183525290812055565b600854600090612242906001906128f7565b6000838152600960205260408120546008805493945090928490811061226a5761226a612784565b90600052602060002001549050806008838154811061228b5761228b612784565b60009182526020808320909101929092558281526009909152604080822084905585825281205560088054806122c3576122c3612968565b6001900381819060005260206000200160009055905550505050565b60006122ea83610af5565b6001600160a01b039093166000908152600660209081526040808320868452825280832085905593825260079052919091209190915550565b60006020828403121561233557600080fd5b5035919050565b6001600160e01b03198116811461235257600080fd5b50565b60006020828403121561236757600080fd5b81356112508161233c565b60005b8381101561238d578181015183820152602001612375565b838111156111765750506000910152565b600081518084526123b6816020860160208601612372565b601f01601f19169290920160200192915050565b602081526000611250602083018461239e565b80356001600160a01b03811681146123f457600080fd5b919050565b6000806040838503121561240c57600080fd5b612415836123dd565b946020939093013593505050565b60008060006060848603121561243857600080fd5b612441846123dd565b925061244f602085016123dd565b9150604084013590509250925092565b60006020828403121561247157600080fd5b611250826123dd565b60008060006060848603121561248f57600080fd5b612498846123dd565b95602085013595506040909401359392505050565b6020808252825182820181905260009190848201906040850190845b818110156124e5578351835292840192918401916001016124c9565b50909695505050505050565b801515811461235257600080fd5b6000806040838503121561251257600080fd5b61251b836123dd565b9150602083013561252b816124f1565b809150509250929050565b634e487b7160e01b600052604160045260246000fd5b6000806000806080858703121561256257600080fd5b61256b856123dd565b9350612579602086016123dd565b925060408501359150606085013567ffffffffffffffff8082111561259d57600080fd5b818701915087601f8301126125b157600080fd5b8135818111156125c3576125c3612536565b604051601f8201601f19908116603f011681019083821181831017156125eb576125eb612536565b816040528281528a602084870101111561260457600080fd5b82602086016020830137600060208483010152809550505050505092959194509250565b602080825282518282018190526000919060409081850190868401855b828110156126895781518051855286810151878601528581015186860152606080820151908601526080908101519085015260a09093019290850190600101612645565b5091979650505050505050565b600080604083850312156126a957600080fd5b6126b2836123dd565b91506126c0602084016123dd565b90509250929050565b6020808252818101527f4f776e61626c653a2063616c6c6572206973206e6f7420746865206f776e6572604082015260600190565b600181811c9082168061271257607f821691505b60208210811415610cbd57634e487b7160e01b600052602260045260246000fd5b60208082526031908201527f4552433732313a207472616e736665722063616c6c6572206973206e6f74206f6040820152701ddb995c881b9bdc88185c1c1c9bdd9959607a1b606082015260800190565b634e487b7160e01b600052603260045260246000fd5b634e487b7160e01b600052601160045260246000fd5b60006000198214156127c4576127c461279a565b5060010190565b60008160001904831182151516156127e5576127e561279a565b500290565b6000602082840312156127fc57600080fd5b5051919050565b60006020828403121561281557600080fd5b8151611250816124f1565b600082198211156128335761283361279a565b500190565b6000835161284a818460208801612372565b83519083019061285e818360208801612372565b01949350505050565b634e487b7160e01b600052601260045260246000fd5b60008261288c5761288c612867565b500690565b60208082526032908201527f4552433732313a207472616e7366657220746f206e6f6e20455243373231526560408201527131b2b4bb32b91034b6b83632b6b2b73a32b960711b606082015260800190565b6000826128f2576128f2612867565b500490565b6000828210156129095761290961279a565b500390565b6001600160a01b03858116825284166020820152604081018390526080606082018190526000906129419083018461239e565b9695505050505050565b60006020828403121561295d57600080fd5b81516112508161233c565b634e487b7160e01b600052603160045260246000fdfea2646970667358221220ed4f80b1155042263b239791f22a1d638e3c290c911a246dffcfe20203452e6064736f6c634300080a003368747470733a2f2f697066732e696f2f697066732f516d596f70363754396953335758376d637a6267776e6d4e44625743775a67504b4735664c5376745a36455166462f",
  "linkReferences": {},
  "deployedLinkReferences": {}
}