{
  "_format": "hh-sol-artifact-1",
  "contractName": "MDOGBreedPool",
  "sourceName": "contracts/staking.sol",
  "abi": [
    {
      "inputs": [],
      "stateMutability": "nonpayable",
      "type": "constructor"
    },
    {
      "anonymous": false,
      "inputs": [
        {
          "indexed": true,
          "internalType": "address",
          "name": "previousOwner",
          "type": "address"
        },
        {
          "indexed": true,
          "internalType": "address",
          "name": "newOwner",
          "type": "address"
        }
      ],
      "name": "OwnershipTransferred",
      "type": "event"
    },
    {
      "inputs": [
        {
          "internalType": "uint256",
          "name": "time",
          "type": "uint256"
        },
        {
          "internalType": "uint256",
          "name": "pairid",
          "type": "uint256"
        }
      ],
      "name": "boostbreed",
      "outputs": [],
      "stateMutability": "nonpayable",
      "type": "function"
    },
    {
      "inputs": [
        {
          "internalType": "uint256",
          "name": "tokenId1",
          "type": "uint256"
        },
        {
          "internalType": "uint256",
          "name": "tokenId2",
          "type": "uint256"
        }
      ],
      "name": "deposit",
      "outputs": [],
      "stateMutability": "nonpayable",
      "type": "function"
    },
    {
      "inputs": [
        {
          "internalType": "uint256",
          "name": "pairid",
          "type": "uint256"
        }
      ],
      "name": "getbreedtime",
      "outputs": [
        {
          "internalType": "uint256",
          "name": "",
          "type": "uint256"
        }
      ],
      "stateMutability": "view",
      "type": "function"
    },
    {
      "inputs": [],
      "name": "getdipositid",
      "outputs": [
        {
          "components": [
            {
              "internalType": "uint256",
              "name": "ID",
              "type": "uint256"
            },
            {
              "internalType": "uint256",
              "name": "dogtype",
              "type": "uint256"
            },
            {
              "internalType": "uint256",
              "name": "fristDog",
              "type": "uint256"
            },
            {
              "internalType": "uint256",
              "name": "secondDog",
              "type": "uint256"
            },
            {
              "internalType": "uint256",
              "name": "breedTime",
              "type": "uint256"
            },
            {
              "internalType": "uint256",
              "name": "depositedtime",
              "type": "uint256"
            }
          ],
          "internalType": "struct MDOGBreedPool.DepositDoginfo[]",
          "name": "",
          "type": "tuple[]"
        }
      ],
      "stateMutability": "view",
      "type": "function"
    },
    {
      "inputs": [],
      "name": "getdogs",
      "outputs": [
        {
          "components": [
            {
              "internalType": "uint256",
              "name": "ID",
              "type": "uint256"
            },
            {
              "internalType": "uint256",
              "name": "dogtype",
              "type": "uint256"
            },
            {
              "internalType": "uint256",
              "name": "fristDog",
              "type": "uint256"
            },
            {
              "internalType": "uint256",
              "name": "secondDog",
              "type": "uint256"
            },
            {
              "internalType": "uint256",
              "name": "breedTime",
              "type": "uint256"
            },
            {
              "internalType": "uint256",
              "name": "depositedtime",
              "type": "uint256"
            }
          ],
          "internalType": "struct MDOGBreedPool.DepositDoginfo[]",
          "name": "",
          "type": "tuple[]"
        }
      ],
      "stateMutability": "view",
      "type": "function"
    },
    {
      "inputs": [
        {
          "internalType": "uint256",
          "name": "pairid",
          "type": "uint256"
        }
      ],
      "name": "getnewnft",
      "outputs": [],
      "stateMutability": "nonpayable",
      "type": "function"
    },
    {
      "inputs": [
        {
          "internalType": "uint256",
          "name": "pairid",
          "type": "uint256"
        }
      ],
      "name": "getremaintime",
      "outputs": [
        {
          "internalType": "uint256",
          "name": "",
          "type": "uint256"
        }
      ],
      "stateMutability": "view",
      "type": "function"
    },
    {
      "inputs": [
        {
          "internalType": "address",
          "name": "operator",
          "type": "address"
        },
        {
          "internalType": "address",
          "name": "from",
          "type": "address"
        },
        {
          "internalType": "uint256",
          "name": "tokenId",
          "type": "uint256"
        },
        {
          "internalType": "bytes",
          "name": "data",
          "type": "bytes"
        }
      ],
      "name": "onERC721Received",
      "outputs": [
        {
          "internalType": "bytes4",
          "name": "",
          "type": "bytes4"
        }
      ],
      "stateMutability": "nonpayable",
      "type": "function"
    },
    {
      "inputs": [],
      "name": "owner",
      "outputs": [
        {
          "internalType": "address",
          "name": "",
          "type": "address"
        }
      ],
      "stateMutability": "view",
      "type": "function"
    },
    {
      "inputs": [],
      "name": "renounceOwnership",
      "outputs": [],
      "stateMutability": "nonpayable",
      "type": "function"
    },
    {
      "inputs": [
        {
          "internalType": "address",
          "name": "newOwner",
          "type": "address"
        }
      ],
      "name": "transferOwnership",
      "outputs": [],
      "stateMutability": "nonpayable",
      "type": "function"
    }
  ],
  "bytecode": "0x6103c060405262278d0060808181526220f58060a0819052622e248060c081905260e08290526101008290526101208490526101408290526101608290526101808290526101a08290526101c0849052624f1a006101e08190526102008390526102208390526102408390526102608290526102808390526102a08390526102c08390526102e08390526103008590526103208590526103409290925261036093909352610380929092526103a091909152620000c190600790601a6200046c565b5060408051610340810182526a04f68ca6d8cd91c60000008082526a0422ca8b0a00a425000000602083018190526a084595161401484a000000938301849052606083018190526080830181905260a0830181905260c0830181905260e08301819052610100830181905261012083018190526101408301819052610160830184905261018083018190526101a083018190526101c083018190526101e0830181905261020083018190526102208301819052610240830182905261026083015261028082018190526a05ca4ec2a79a7f670000006102a083018190526102c08301919091526102e08201819052610300820152610320810191909152620001ce90600890601a620004c3565b5060408051610340810182526969e10de76676d08000008082526020820181905269d3c21bcecceda100000092820183905260608201929092526080810182905260a0810182905260c0810182905260e081018290526101008101829052610120810182905261014081018290526a027b46536c66c8e3000000610160820181905261018082018390526101a082018390526101c082018390526101e08201839052610200820183905261022082018390526102408201839052610260820183905261028082018390526102a082018390526102c082018390526102e08201839052610300820192909252610320810191909152620002d290600990601a620004c3565b5060408051610340810182526000815261012c6020820152610294918101919091526103c06060820152610550608082015261074460a082015261084860c0820152610a3c60e0820152610c30610100820152610d5c610120820152610f506101408201526111446101608201526111bc6101808201526112e86101a08201526114dc6101c08201526116d06101e08201526118606102008201526119f0610220820152611be4610240820152611d74610260820152611f686102808201526120f86102a08201526122886102c08201526123b46102e08201526124e0610300820152612670610320820152620003ce90600a90601a6200050c565b50348015620003dc57600080fd5b50600080546001600160a01b031916339081178255604051909182917f8be0079c531659141344cd1fd0a4f28419497f9722a3daafe3b4186f6b6457e0908290a350600b80546001600160a01b0319908116730b17b775b72406a7d48084c6bd3687fc883eab7917909155600c805490911673972954f0ee7c8215ec5b76d55cb15215338f9d5617905562000567565b828054828255906000526020600020908101928215620004b1579160200282015b82811115620004b1578251829062ffffff169055916020019190600101906200048d565b50620004bf92915062000550565b5090565b828054828255906000526020600020908101928215620004b1579160200282015b82811115620004b157825182906001600160581b0316905591602001919060010190620004e4565b828054828255906000526020600020908101928215620004b1579160200282015b82811115620004b1578251829061ffff169055916020019190600101906200052d565b5b80821115620004bf576000815560010162000551565b611a5a80620005776000396000f3fe608060405234801561001057600080fd5b50600436106100a95760003560e01c80638da5cb5b116100715780638da5cb5b146101155780639d09cee714610130578063a6662fb114610151578063c63a4d4414610164578063e2bbb15814610177578063f2fde38b1461018a57600080fd5b8063105b2c3e146100ae578063150b7a02146100cc57806323777d1a146100f85780633ce31b9a146100ae578063715018a61461010d575b600080fd5b6100b661019d565b6040516100c39190611734565b60405180910390f35b6100df6100da3660046117c4565b610243565b6040516001600160e01b031990911681526020016100c3565b61010b610106366004611863565b6102f1565b005b61010b61071d565b6000546040516001600160a01b0390911681526020016100c3565b61014361013e366004611863565b6107c1565b6040519081526020016100c3565b61010b61015f36600461187c565b61083e565b610143610172366004611863565b610cab565b61010b61018536600461187c565b610d6d565b61010b61019836600461189e565b611581565b336000908152600360209081526040808320805482518185028101850190935280835260609492939192909184015b8282101561023a57838290600052602060002090600602016040518060c00160405290816000820154815260200160018201548152602001600282015481526020016003820154815260200160048201548152602001600582015481525050815260200190600101906101cc565b50505050905090565b6000846001600160a01b0316866001600160a01b031614156102995760405162461bcd60e51b8152600401610290906020808252600490820152636861686160e01b604082015260600190565b60405180910390fd5b600084116102d25760405162461bcd60e51b81526004016102909060208082526004908201526319dbdbd960e21b604082015260600190565b6102de600d848461169b565b50630a85bd0160e11b9695505050505050565b336000908152600260205260409020546103425760405162461bcd60e51b8152602060048201526012602482015271139bc81d1bdad95b9cc81d1bc8189c99595960721b6044820152606401610290565b3360009081526004602081815260408084208585529091529091209081015460059091015461037190426118d8565b116103b45760405162461bcd60e51b815260206004820152601360248201527215d85a5d081b5bdc9948199bdc88189c995959606a1b6044820152606401610290565b600b54336000818152600460208181526040808420878552909152918290206002015491516323b872dd60e01b81526001600160a01b03909416936323b872dd9361040593309391929091016118ef565b600060405180830381600087803b15801561041f57600080fd5b505af1158015610433573d6000803e3d6000fd5b5050600b54336000818152600460208181526040808420898552909152918290206003015491516323b872dd60e01b81526001600160a01b0390941695506323b872dd94506104869330939291016118ef565b600060405180830381600087803b1580156104a057600080fd5b505af11580156104b4573d6000803e3d6000fd5b5050600b543360008181526004602081815260408084208985529091529182902060010154915163034056a560e61b81529081019290925260248201526001600160a01b03909116925063d015a9409150604401600060405180830381600087803b15801561052257600080fd5b505af1158015610536573d6000803e3d6000fd5b505033600090815260026020526040812080546001945090925061055b9084906118d8565b9091555060009050805b336000908152600360205260409020548110156105ce573360009081526003602052604090208054849190839081106105a0576105a0611913565b90600052602060002090600602016000015414156105bc578091505b806105c681611929565b915050610565565b505b336000908152600360205260409020546105ec906001906118d8565b8110156106c15733600090815260036020526040902061060d826001611944565b8154811061061d5761061d611913565b906000526020600020906006020160036000336001600160a01b03166001600160a01b03168152602001908152602001600020828154811061066157610661611913565b906000526020600020906006020160008201548160000155600182015481600101556002820154816002015560038201548160030155600482015481600401556005820154816005015590505080806106b990611929565b9150506105d0565b3360009081526003602052604090208054806106df576106df61195c565b600082815260208120600660001990930192830201818155600181018290556002810182905560038101829055600481018290556005015590555050565b6000546001600160a01b031633146107775760405162461bcd60e51b815260206004820181905260248201527f4f776e61626c653a2063616c6c6572206973206e6f7420746865206f776e65726044820152606401610290565b600080546040516001600160a01b03909116907f8be0079c531659141344cd1fd0a4f28419497f9722a3daafe3b4186f6b6457e0908390a3600080546001600160a01b0319169055565b3360009081526002602052604081205461081d5760405162461bcd60e51b815260206004820152601b60248201527f4469706f736974204e6f20746f6b656e7320666f7220627265656400000000006044820152606401610290565b50336000908152600460208181526040808420948452939052919020015490565b3360009081526002602052604090205461088f5760405162461bcd60e51b8152602060048201526012602482015271139bc81d1bdad95b9cc81d1bc8189bdbdcdd60721b6044820152606401610290565b61089c8262015180611972565b336000908152600460208181526040808420868552909152909120015410156108f65760405162461bcd60e51b815260206004820152600c60248201526b496e76616c69642074696d6560a01b6044820152606401610290565b3360009081526006602052604090205460098054849290811061091b5761091b611913565b90600052602060002001546109309190611972565b600c546040516370a0823160e01b81523360048201526001600160a01b03909116906370a0823190602401602060405180830381865afa158015610978573d6000803e3d6000fd5b505050506040513d601f19601f8201168201806040525081019061099c9190611991565b10156109db5760405162461bcd60e51b815260206004820152600e60248201526d125b9d985b1a5908105b5bdd5b9d60921b6044820152606401610290565b600c5433600081815260066020526040902054600980546001600160a01b03909416936323b872dd9392309288929091908110610a1a57610a1a611913565b9060005260206000200154610a2f9190611972565b6040518463ffffffff1660e01b8152600401610a4d939291906118ef565b6020604051808303816000875af1158015610a6c573d6000803e3d6000fd5b505050506040513d601f19601f82011682018060405250810190610a9091906119aa565b50610a9e8262015180611972565b3360009081526004602081815260408084208685529091529091200154610ac591906118d8565b33600090815260046020818152604080842086855290915291829020810192909255600c5490516370a0823160e01b8152309281018390526001600160a01b039091169163095ea7b39183906370a0823190602401602060405180830381865afa158015610b37573d6000803e3d6000fd5b505050506040513d601f19601f82011682018060405250810190610b5b9190611991565b6040516001600160e01b031960e085901b1681526001600160a01b03909216600483015260248201526044016020604051808303816000875af1158015610ba6573d6000803e3d6000fd5b505050506040513d601f19601f82011682018060405250810190610bca91906119aa565b50600c546040516370a0823160e01b815230600482018190526001600160a01b03909216916323b872dd9161dead9084906370a0823190602401602060405180830381865afa158015610c21573d6000803e3d6000fd5b505050506040513d601f19601f82011682018060405250810190610c459190611991565b6040518463ffffffff1660e01b8152600401610c63939291906118ef565b6020604051808303816000875af1158015610c82573d6000803e3d6000fd5b505050506040513d601f19601f82011682018060405250810190610ca691906119aa565b505050565b33600090815260026020526040812054610d075760405162461bcd60e51b815260206004820152601b60248201527f4469706f736974204e6f20746f6b656e7320666f7220627265656400000000006044820152606401610290565b3360009081526004602081815260408084208685529091528220908101546005909101549091610d3782426118d8565b610d4190846118d8565b1015610d51575060009392505050565b610d5b81426118d8565b610d6590836118d8565b949350505050565b600b546040516331a9108f60e11b8152600481018490526001600160a01b0390911690636352211e90602401602060405180830381865afa158015610db6573d6000803e3d6000fd5b505050506040513d601f19601f82011682018060405250810190610dda91906119cc565b6001600160a01b0316336001600160a01b031614610e315760405162461bcd60e51b815260206004820152601460248201527329b2b73232b91036bab9ba1031329037bbb732b960611b6044820152606401610290565b600b546040516331a9108f60e11b8152600481018390526001600160a01b0390911690636352211e90602401602060405180830381865afa158015610e7a573d6000803e3d6000fd5b505050506040513d601f19601f82011682018060405250810190610e9e91906119cc565b6001600160a01b0316336001600160a01b031614610ef55760405162461bcd60e51b815260206004820152601460248201527329b2b73232b91036bab9ba1031329037bbb732b960611b6044820152606401610290565b60008060005b600a54811015610fcd57600a8181548110610f1857610f18611913565b906000526020600020015485118015610f575750600a610f39826001611944565b81548110610f4957610f49611913565b906000526020600020015485105b15610f60578092505b600a8181548110610f7357610f73611913565b906000526020600020015484118015610fb25750600a610f94826001611944565b81548110610fa457610fa4611913565b906000526020600020015484105b15610fbb578091505b80610fc581611929565b915050610efb565b50600c54600880546001600160a01b03909216916323b872dd91339130919087908110610ffc57610ffc611913565b90600052602060002001546040518463ffffffff1660e01b8152600401611025939291906118ef565b6020604051808303816000875af1158015611044573d6000803e3d6000fd5b505050506040513d601f19601f8201168201806040525081019061106891906119aa565b50600b546040516323b872dd60e01b81526001600160a01b03909116906323b872dd9061109d903390309089906004016118ef565b600060405180830381600087803b1580156110b757600080fd5b505af11580156110cb573d6000803e3d6000fd5b5050600b546040516323b872dd60e01b81526001600160a01b0390911692506323b872dd9150611103903390309088906004016118ef565b600060405180830381600087803b15801561111d57600080fd5b505af1158015611131573d6000803e3d6000fd5b5050505061116e6040518060c001604052806000815260200160008152602001600081526020016000815260200160008152602001600081525090565b3360009081526001602081905260408220805491929091611190908490611944565b90915550503360009081526002602052604081208054600192906111b5908490611944565b909155505033600090815260016020908152604080832054845283810188905260608401879052908301859052600b549051630ab276cd60e11b8152600481018890526001600160a01b0390911690631564ed9a90602401602060405180830381865afa15801561122a573d6000803e3d6000fd5b505050506040513d601f19601f8201168201806040525081019061124e9190611991565b600b54604051630ab276cd60e11b8152600481018890529192506000916001600160a01b0390911690631564ed9a90602401602060405180830381865afa15801561129d573d6000803e3d6000fd5b505050506040513d601f19601f820116820180604052508101906112c19190611991565b90506112cd8183611944565b6112da9062015180611972565b600786815481106112ed576112ed611913565b906000526020600020015461130291906118d8565b608084019081524260a0850190815233600081815260046020818152604080842060018084528286205486529083528185208b518155838c01805182840155838d01805160028085019190915560608f0180516003808701919091558d51868b01558c516005968701559a8a528a8852868a2080548088018255908b52979099208f516006909802019687559151938601939093559151918401919091559351948201949094559451858201559251930192909255600c5491516370a0823160e01b8152309181018290526001600160a01b039092169163095ea7b3919083906370a0823190602401602060405180830381865afa158015611408573d6000803e3d6000fd5b505050506040513d601f19601f8201168201806040525081019061142c9190611991565b6040516001600160e01b031960e085901b1681526001600160a01b03909216600483015260248201526044016020604051808303816000875af1158015611477573d6000803e3d6000fd5b505050506040513d601f19601f8201168201806040525081019061149b91906119aa565b50600c546040516370a0823160e01b815230600482018190526001600160a01b03909216916323b872dd9161dead9084906370a0823190602401602060405180830381865afa1580156114f2573d6000803e3d6000fd5b505050506040513d601f19601f820116820180604052508101906115169190611991565b6040518463ffffffff1660e01b8152600401611534939291906118ef565b6020604051808303816000875af1158015611553573d6000803e3d6000fd5b505050506040513d601f19601f8201168201806040525081019061157791906119aa565b5050505050505050565b6000546001600160a01b031633146115db5760405162461bcd60e51b815260206004820181905260248201527f4f776e61626c653a2063616c6c6572206973206e6f7420746865206f776e65726044820152606401610290565b6001600160a01b0381166116405760405162461bcd60e51b815260206004820152602660248201527f4f776e61626c653a206e6577206f776e657220697320746865207a65726f206160448201526564647265737360d01b6064820152608401610290565b600080546040516001600160a01b03808516939216917f8be0079c531659141344cd1fd0a4f28419497f9722a3daafe3b4186f6b6457e091a3600080546001600160a01b0319166001600160a01b0392909216919091179055565b8280546116a7906119e9565b90600052602060002090601f0160209004810192826116c9576000855561170f565b82601f106116e25782800160ff1982351617855561170f565b8280016001018555821561170f579182015b8281111561170f5782358255916020019190600101906116f4565b5061171b92915061171f565b5090565b5b8082111561171b5760008155600101611720565b602080825282518282018190526000919060409081850190868401855b8281101561179f5781518051855286810151878601528581015186860152606080820151908601526080808201519086015260a0908101519085015260c09093019290850190600101611751565b5091979650505050505050565b6001600160a01b03811681146117c157600080fd5b50565b6000806000806000608086880312156117dc57600080fd5b85356117e7816117ac565b945060208601356117f7816117ac565b935060408601359250606086013567ffffffffffffffff8082111561181b57600080fd5b818801915088601f83011261182f57600080fd5b81358181111561183e57600080fd5b89602082850101111561185057600080fd5b9699959850939650602001949392505050565b60006020828403121561187557600080fd5b5035919050565b6000806040838503121561188f57600080fd5b50508035926020909101359150565b6000602082840312156118b057600080fd5b81356118bb816117ac565b9392505050565b634e487b7160e01b600052601160045260246000fd5b6000828210156118ea576118ea6118c2565b500390565b6001600160a01b039384168152919092166020820152604081019190915260600190565b634e487b7160e01b600052603260045260246000fd5b600060001982141561193d5761193d6118c2565b5060010190565b60008219821115611957576119576118c2565b500190565b634e487b7160e01b600052603160045260246000fd5b600081600019048311821515161561198c5761198c6118c2565b500290565b6000602082840312156119a357600080fd5b5051919050565b6000602082840312156119bc57600080fd5b815180151581146118bb57600080fd5b6000602082840312156119de57600080fd5b81516118bb816117ac565b600181811c908216806119fd57607f821691505b60208210811415611a1e57634e487b7160e01b600052602260045260246000fd5b5091905056fea2646970667358221220327cc76cc609bc3a0439c943d6247ec447a28f9ac22376cd9015ec103075e7cc64736f6c634300080a0033",
  "linkReferences": {},
  "deployedLinkReferences": {}
}